:020000040800F2
:1000000060090020D90100083D400008FD2B0008D0
:10001000394000082D0800086D430008000000006A
:100020000000000000000000000000008D400008FB
:10003000310800080000000041400008914000081D
:10004000F3010008F3010008F3010008F3010008C0
:10005000F3010008F3010008F3010008F3010008B0
:10006000F3010008F3010008F3010008F3010008A0
:10007000F3010008F3010008F3010008F301000890
:10008000F3010008F3010008F3010008F301000880
:10009000F3010008F3010008F3010008F301000870
:1000A000F3010008F3010008F3010008F301000860
:1000B000F3010008F3010008F30100080D2C00080B
:1000C000012C0008252C0008192C0008F301000859
:1000D000F3010008F301000861430008F301000880
:1000E000F3010008F3010008F3010008F301000820
:1000F000F3010008F3010008F3010008F301000810
:10010000F3010008F3010008F3010008F3010008FF
:10011000F3010008F3010008F3010008F3010008EF
:10012000F3010008F3010008F3010008F3010008DF
:10013000F30100080000000000000000F3010008C7
:10014000F3010008F3010008F3010008F3010008BF
:10015000F3010008F3010008F3010008F3010008AF
:10016000F3010008F3010008F3010008F30100089F
:10017000F3010008F3010008F3010008000000008B
:1001800000000000F3010008000000000000000073
:10019000F30100080000000000000000F301000867
:1001A000000000000000000000000000F301000853
:1001B000F3010008F3010008F3010008F30100084F
:1001C000F3010008DFF80CD000F01EFB00480047E8
:1001D0009143000860090020064880470648004710
:1001E000FEE7FEE7FEE7FEE7FEE7FEE7FEE7FEE7E7
:1001F000FEE7FEE759410008C50100082DE9F05F60
:100200000546002092469B46884606468146402485
:100210001BE0284641464746224600F02DF953464A
:100220005A46C01A914110D311461846224600F092
:1002300014F92D1A67EB01084F46224601200021D0
:1002400000F00BF917EB00094E41201EA4F1010448
:10025000DFDC484631462A464346BDE8F09FD2B22D
:1002600001E000F8012B491EFBD270470022F6E79F
:1002700010B513460A4604461946FFF7F0FF20461C
:1002800010BD2DE9FE4F804681EA0300C00F0C46E9
:10029000009021F0004123F00045B8EB0200A94195
:1002A00005D24046214690461C460B46024623F0A6
:1002B0000040104347D0270DC7F30A00C3F30A518B
:1002C0000290401A019040286BDAC3F3130040F407
:1002D000801B0098924620B10023D2EB030A63EB07
:1002E0000B0B01985946C0F14002504600F0B5F89A
:1002F00006460D4650465946019A00F0CDF810EBDF
:1003000008006141002487EA115284EAE7731A4326
:1003100040D0009A62B3019A012A4FEA075215DCD5
:10032000001B61EB02014FF0004202EA0752CDE9E7
:100330000042001C41F5801132462B4600F004F9C2
:1003400003B0BDE8F08F40462146F9E7001B61EBA2
:100350000201001C41F5801300185B412018A2F532
:10036000001747EB030140EAD570B6196D4111E063
:100370006D084FEA360645EAC0754FEA0752001B82
:1003800061EB0201001C41F5801149084FEA300081
:100390000019514132462B4603B0BDE8F04F00F042
:1003A000C4B80098012240000023D0EB020263EBA6
:1003B000E073009821464FEAE074B8EB000061EB6F
:1003C0000401E9E783F000435BE781F0004158E76F
:1003D00000F0004230F000400AD0C10D01F560711C
:1003E000C0F3160042EA0151C208400711437047AA
:1003F00000200146704701F0004330B421F0004175
:1004000050EA010206D00A0DA2F56072C1F3130191
:10041000002A02DC30BC00207047440F44EAC104CB
:10042000C100E01830BC00EBC25000F047B830B556
:100430000B46014600202022012409E021FA02F5A2
:100440009D4205D303FA02F5491B04FA02F528443C
:10045000151EA2F10102F1DC30BD202A04DB203A96
:1004600000FA02F1002070479140C2F1200320FA07
:1004700003F3194390407047202A04DB203A21FA05
:1004800002F00021704721FA02F3D040C2F12002AD
:100490009140084319467047202A06DBCB17203AC3
:1004A00041FA02F043EAE07306E041FA02F3D04079
:1004B000C2F1200291400843194670470029A8BFA5
:1004C0007047401C490008BF20F00100704710B47D
:1004D000B0FA80FC00FA0CF050EA010404BF10BC32
:1004E000704749B1CCF1200421FA04F411FA0CF15F
:1004F00018BF012121430843A3EB0C01CB1D4FEA98
:1005000000614FEA102042BF002010BC704700EB92
:10051000C35010440029A4BF10BC7047401C4900C0
:1005200008BF20F0010010BC704710B5141E73F115
:10053000000408DA401C41F1000192185B411A43A3
:1005400001D120F0010010BD2DE9F04D92469B46EF
:1005500011B1B1FA81F202E0B0FA80F22032904695
:10056000FFF77BFF04460F4640EA0A0041EA0B0111
:1005700053465A46084313D0114653EA010019D096
:10058000C8F140025046FFF777FF05460E46504639
:1005900059464246FFF761FF084305D0012004E0B9
:1005A00020463946BDE8F08D0020054346EAE07656
:1005B0002C4337430A986305E40AA0EB08000022A5
:1005C000FD0A44EA47540A3002D500200146E9E713
:1005D000010510196941DDE9084500196941BDE8C7
:1005E000F04DA2E72DE9FE4F81EA030404F0004438
:1005F00021F0004100944FF0000B23F0004350EA3B
:1006000001045ED052EA03045BD0C3F30A54C1F381
:100610000A552C44A4F2F3340194A0FB0254C1F314
:10062000130141F48011C3F3130343F4801301FB5E
:10063000024400FB034E840A970A44EA815447EAC5
:100640008357A4FB076802958D0A05FB07854FEACF
:10065000932C04FB0C542705029D4FEA065847EAE9
:100660001637B5EB08056EEB070C870E920E47EABE
:10067000811742EA8312A7FB0201B6EB0B0164EB80
:1006800000042B0D43EA0C335E1844EB1C50DA4691
:100690005146E7FB0201C5F313044FEA0B3343EA6B
:1006A00014534FEA0432019C43EA0603A4F10C04FC
:1006B0000294009CCDE900B4FFF746FF03B0BDE80B
:1006C000F08F00200146F9E72DE9F04D81EA03049F
:1006D00004F0004B21F0004514464FF0000A23F0CF
:1006E000004150EA050220D054EA01021DD0C5F3B2
:1006F0000A570246C5F31303C1F31300C1F30A56A8
:1007000040F4801543F48013A7EB0608101BD6466F
:1007100008F2FD3873EB050002D308F1010801E08F
:1007200092185B41B8F1000F03DA00200146BDE8E2
:10073000F08D00204FF48011064684460EE0171B12
:1007400073EB050705D3121B63EB050306434CEA65
:10075000010C49084FEA300092185B4150EA01074A
:10076000EDD152EA030012D082EA040083EA0501C7
:10077000084305D0101BAB4106D20122002306E03E
:1007800000224FF0004302E06FF0010253101AEB19
:1007900006004CEB085110EB0A0041EB0B01BDE8E1
:1007A000F04DFFF7C2BEC1F30A52C1F3130140F28C
:1007B000FF3341F480119A4202DA0020014670476B
:1007C00040F233439A42A2F2334202DC5242FFF734
:1007D00053BEFFF742BE000030B5041E71F10004A5
:1007E00004DB4FF00044404264EB0101141E73F13E
:1007F000000405DB1C464FF00043524263EB040348
:10080000994208BF904230BD064C074D06E0E068B3
:1008100040F0010394E8070098471034AC42F6D347
:10082000FFF7D4FC085E0008285E0008FEE7000021
:1008300070470000EFF3108072B600BFFEE70000C3
:1008400070B5866D044600F049F994F83510022918
:1008500028D105462068216C026822F01602026049
:10086000426922F08002426109B9A16C19B10168A4
:1008700021F008010160016821F00101016000BF61
:1008800020680068C00715D000F028F9401B062832
:10089000F6D320206065032084F83500002184F819
:1008A000341070BD802060650120002184F8341070
:1008B00070BD00BFE06D3F2101FA00F0B060012083
:1008C00084F835000020002184F8341070BD000049
:1008D00090F83510022909D1052180F835100068FB
:1008E000016821F00101016000207047802141650D
:1008F0000120704790F8350070470000B0B50446FD
:1009000000F0ECF8054640F20400C2F20000007866
:10091000611C18BF044400BF00F0E0F8401BA04277
:10092000FAD3B0BD2DE9F04F83B000F1200200F101
:100930003E4741F60005009207F1FF77C4F2020539
:1009400007224FEAB726A84208BF062200254FF02B
:1009500000084FF00009062E38BF4FEAB722019277
:100960000AE000BF09F1010908F10208B9F1100F0E
:1009700005F1040500F0A2800F68012202FA09FEC9
:1009800017EA0E0AEED0D1F804C003220CF00307D8
:100990007E1E02FA08F4012E6FEA040B12D8846856
:1009A000CE6804EA0B0406FA08F63443846044680F
:1009B00024EA0E06CCF3001404FA09F42643466038
:1009C00004E000BF032F01D103271EE0C6688C6836
:1009D00006EA0B0604FA08F42643022FC66014D177
:1009E0006FF00302009E02EA590756F807C005F0AF
:1009F0001C040F220B69A2402CEA0202A3401A43F6
:100A0000F251D1F804C00CF00307026807FA08F3AA
:100A100002EA0B021A431CF4403F0260A2D00022FB
:100A200043F644030292C4F202031A6843F60044F8
:100A300042F480421A601A68C4F2010402F480424F
:100A40000292029A29F003024FF6084C2244CFF694
:100A5000FF7C52F80C3005F00C070F26BE40B34364
:100A6000019E06FA07F73B4342F80C30A2684B6838
:100A700042EA0A0743F60C4CDE0258BF22EA0A0794
:100A8000A760C4F2010CDCF800209E0242EA0A07CB
:100A900058BF22EA0A07CCF8007062689E0342EA57
:100AA0000A0758BF22EA0A0767602268DB0342EAA6
:100AB0000A0758BF22EA0A07276053E703B0BDE8D8
:100AC000F08F00000069084018BF01207047000047
:100AD000002A08BF090481617047000040F25850A5
:100AE000C2F20000006870477047000070470000C5
:100AF000F0B581B00446006800254769426894F863
:100B00003E1002F48076FA0505D5002E1EBF6FF464
:100B1000807242610125BA0505D5002E1EBF02353F
:100B20006FF4007242617A0516D5AEB1628D94F809
:100B30003D30D4F830C0202908BF002A24D06FF4FB
:100B40008062402905F10405426101D0102903D1DA
:100B5000016841F400710160380507D536B120689D
:100B600008356FF40061416101E000BF55B1206CB0
:100B700040EA05012046216401B0BDE8F04002F0E2
:100B8000E9B800BF01B0F0BD03F0F701212909D099
:100B9000282B08BFBCF1210F04D06FF480614161A4
:100BA0000435D9E794F83D10E26AB2F1080318BFA2
:100BB0000123203A18BF0122134208BF28291DD063
:100BC000212935D10021CFF6FF71E1622121216376
:100BD000202184F83D10002184F83E10416821F462
:100BE000E06141606FF480614161016821F48061DE
:100BF0000160204600F020FFAEE700BF0021CFF6E5
:100C0000FF71E162416821F4E06141606FF480614D
:100C10004161016821F4806101600020202120638E
:100C200084F83D1084F83E00204600F0B7FB93E7BF
:100C30006FF4806141618FE7F0B581B00768796832
:100C4000C26A90F83E5090F83DE0402D01D0102D42
:100C500034D1BB697C69E60718D1B2F12A4F00F0A4
:100C60006782B2F52A0F00F06382220701F4007256
:100C700040F10681002A00F00381416B426C00299B
:100C8000D2B23A6140F0B080B0E000BF8A0543D4F0
:100C90004FF0010C7A685B076ED4120500F14882B0
:100CA00004F04402402A40F0598111F4806100F0C0
:100CB000558101B0BDE8F04002F086B9026C01F444
:100CC0000073002A0CBFBC6900247D69AA0729D5DE
:100CD00043B3016C002918BFBC6990F83D1001F0C6
:100CE0002801282940F0C0807968012221F4806120
:100CF000796004F0040182EA910122064FF01802A3
:100D000058BF0C22825A002380F83C3001B0BDE865
:100D1000F040FFF7EBBE00BFC16AB1F52A0F3DD12D
:100D2000012140E0EA066FD5002B6DD090F83D50D0
:100D3000796821F4E061796000210091796900917E
:100D4000396841F0010139600099396821F4806106
:100D500039607968090540F1798105F0F7010446A9
:100D6000222940F0498154F8381F0A68526824F853
:100D70000E2C34F80E2C47E1120500F1D98104F055
:100D80008402802A40F0F88011F4806100F0F48041
:100D900001B0BDE8F04002F0F7B900BFC16AB1F19F
:100DA0002A4F01D10821C16290F83E1040290BD191
:100DB000016D406C002900F0FE0018BF40F00100FA
:100DC000386101B0F0BD00BF0169B1F5804F40F05E
:100DD000898090F83D10426C212902F0FE0218BF74
:100DE00001323A61416B09B1C96B39B9806B002896
:100DF00000F09E81C06B002800F09A81786840F472
:100E00000060786001B0F0BD0EF0F702212A79D1C0
:100E100005F08402802A40F0C18011F4806100F066
:100E2000BD8090F83D10428D002A00F08181426A19
:100E300012F8013B3B614262428D013A4285428D8C
:100E4000002A08BF292940F07381796821F4806164
:100E5000796021210163282180F83D1001B0BDE8AF
:100E6000F04000F0E9BD00BF002100917A690092D6
:100E7000BA690092009A80F83C1001B0F0BD00BF42
:100E80004FF0010CA6078CEA522C7FF503AF002A25
:100E90003FF400AF90F83E20C16A036B90F83D60CC
:100EA000222E40F09F80066D002E08BF402A00F0E1
:100EB0009980026D002A40F03D810269B2F5404FF1
:100EC00040F038810021009179690091B969009161
:100ED0000099396841F480713960016D0131016513
:100EE00001B0F0BD016D002900F00081016D012904
:100EF00040F01E81406C062101EAD010F1303861CB
:100F000001B0F0BD05F04402402A57D111F48061D0
:100F100054D090F83D10428D002A00F009813A69C2
:100F2000436A1A70426A01324262428D013A428536
:100F3000428D002A08BF2A2940F0FA8001684A68D9
:100F400022F480624A6022210163282180F83D104A
:100F500001B0BDE8F04000F06DBD00BF04F0040139
:100F6000012282EA910151EA0C0140F0E18001B0D6
:100F7000BDE8F04001F0B4BF04F00401012282EAB0
:100F8000910151EA0C0140F0D380BEF1210F40F0F5
:100F9000C78001B0BDE8F04002F0B4B8690740F185
:100FA000C780002B00F0C480418D002900F0C08074
:100FB000416A11F8012B3A610FE000BF690740F167
:100FC000B780002B00F0B480418D002900F0B08084
:100FD0003969426A1170416A01314162418D0139BA
:100FE0004185A5E00020009078690090B8690090E4
:100FF000009801B0F0BD00BF54F8341F0A68526871
:1010000024F80A2C34F80A2C1AB1026C42F00402BB
:1010100002647A68064622F4006208467A60FFF7A6
:1010200069FC01463046012910D0206842F6314162
:10103000C0F600010165FFF74BFC0146304629B1BF
:10104000216804460A6D084690472046418D61B1EB
:1010500001684A6952072FD44A69520639D4418D32
:1010600019B1016C41F004010164016C21B101B0BE
:10107000BDE8F04001F06EBE2A2D08D100210163C9
:10108000282180F83D10044600F0D4FC204690F85A
:101090003D10282932D10021CFF6FF71C162002115
:1010A0002022016380F83D2080F83E1001B0BDE8A9
:1010B000F04000F073B900BF0969426A1170426ADA
:1010C000016801324262428D013A42854A69520604
:1010D000C5D50969426A1170416A01314162418D89
:1010E00001394185418D0029BBD1BEE7406C062105
:1010F00001EAD010F030386101B0F0BD016B222957
:1011000018BF222D14D100212022016380F83D2038
:1011100080F83E1001B0BDE8F04000F08BBC00BF8D
:10112000402D05D101B0BDE8F04002F087B800BF06
:1011300001B0F0BD428D52B1428D012A16D1202955
:1011400018BF082926D1396821F48061396000214F
:10115000009179690091B96900910099396841F469
:10116000007139600021016501B0F0BD428D022A95
:101170000CD1102932D8012214238A40C0F2010375
:101180001A422BD04FF480622EE000BF3A6842F43E
:1011900080622BE011F5803F0CD1396821F4806129
:1011A000396079680905D2D5396821F480613960E0
:1011B00030E000BF122B01D10129C4D11029F3D88E
:1011C000012202FA01F11422C0F201021142EBD015
:1011D000396841F4806139601CE000BF3A6822F44C
:1011E00080623A604FF400623B681A433A607A6862
:1011F00012050FD54A1E1F2A18D8012303FA02F23E
:1012000048F28103C8F200031A420FD0796841F412
:10121000805179600021009179690091B96900914C
:1012200000990021016501B0F0BD00BF11F5803FBC
:10123000ECD0EFE770470000002804BF01207047A2
:10124000F0B581B0044690F83D0028B9002084F83C
:101250003C00204600F050FB242084F83D0020682C
:10126000016821F001010160016841F40041016061
:10127000016821F40041016000F08AFD636848F2D2
:10128000A16CC0F2010C40F60011C0F23D016345B3
:101290003CBF48F28041C0F21E01884202D20120C8
:1012A00001B0F0BD4DF68361C4F21B31A0FB011209
:1012B0002168970CD1F804E04FF496762EF03F05A4
:1012C00045EA92454D60774348F638160D6AC0F2FC
:1012D0004106A7FB067625F03F07634538BF960C0D
:1012E000721C3A430A62CA6948F2A0664CF6FF775C
:1012F000C0F20106B34222EA07020BD801385B00B4
:10130000B0FBF3F001306FF31F30042898BF0420C6
:101310001BE000BFA768013857B119277B43B0FB1A
:10132000F3F001306FF31F3070B100F5804007E03B
:1013300003EB4303B0FBF3F001306FF31F3018B140
:1013400000F5004001E000BF01201043C8610868BB
:10135000D4E9072320F0C0001043184308608868D0
:1013600048F2FF3204F10C0790438CCF184310432E
:10137000A6698860C86820F0FF0038433043C86021
:10138000086840F00100086000202021206484F8F3
:101390003D10206384F83E0001B0F0BD70470000AE
:1013A0007047000070470000704700007047000061
:1013B0002DE9F04784B0984617460E460446FFF7DD
:1013C0008DFB94F83D10202923D1054620688169C2
:1013D000890719D5FFF782FB401B1928F6D9002091
:1013E0002021206384F83D1084F83E00206C04F135
:1013F0003C0940F0200020640220002189F8001000
:1014000004B0BDE8F08700BFA14619F83C1F0129D0
:1014100004D1022004B0BDE8F08700BF012289F8A2
:1014200000200368DDE90D1A0C9ADB0703D103687D
:1014300043F001030360036823F400630360222088
:1014400084F83D00402084F83E0000202064626261
:101450006185608D314620850020CFF6FF70E06207
:1014600020463A464346CDE900A501F041FF18B1B8
:10147000012004B0BDE8F087208D08B3022813D006
:10148000012835D121680A6822F480620A600022AE
:1014900003924A6903928A690392039A0A6842F4A2
:1014A00000720A602CE000BF21680A6822F48062A2
:1014B0000A600A6842F400620A60002203921AE09D
:1014C0000020039020684169039181690391039989
:1014D000016841F400710160202084F83D00002083
:1014E00084F83E00002189F8001004B0BDE8F087C0
:1014F0000021039121684A69039289690391039944
:101500000AF1010680B2032818D8022842D0012827
:1015100056D1BAF1000F00F0AB802068014651F8B7
:10152000142F520600F1A8800868C00600F1E2807E
:10153000FFF7D4FA401B5045EFD9D0E0BAF1000FC5
:1015400010D000BF2068014651F8142F52060ED467
:101550000868C00600F1CE80FFF7C0FA401B504576
:10156000F0D9BCE020684169490640F1B1800069CA
:10157000616A0870606A2268411C208D61620138CE
:101580002085638D013B638553695B0740F1808053
:10159000106973E020684169490747D4002E59D08B
:1015A000BAF1000F00F09980FFF798FA401B504500
:1015B00000F29580206841694907F5D536E000BF03
:1015C0002068416949070FD4002E65D0BAF1000F99
:1015D00000F08380FFF782FA401B504500F27F80C5
:1015E000206841694907F5D5016821F480610160EF
:1015F0000069616A0870606A218D0130013960629A
:1016000021852068618D01396185416949070DD4C3
:10161000002E4FD0BAF1000F5FD0FFF75FFA401BEA
:1016200050455CD8206841694907F6D5016841F406
:10163000007101600069616A0870606A2268411C7B
:101640006162218D01392185618D013961851169C1
:10165000417014E041694907E8D4416949075CBF1A
:1016600041695FEA4171E1D441694907F2D5DDE79B
:101670002068416949062BD50069616A0870606A73
:10168000218D01306062481E2085618D01396185A0
:1016900001047FF437AF1FE741694907A4D44169CA
:1016A00049075CBF41695FEA41719DD441694907BF
:1016B000F2D599E741694907B8D4416949075CBF48
:1016C00041695FEA4171B1D441694907F2D5ADE79B
:1016D00050F8141FC90601460CD4FFF7FFF900208B
:1016E0002021206384F83D1084F83E00206C40F0F7
:1016F00020000AE06FF01000086000202021206325
:1017000084F83D1084F83E00206C20640120002104
:1017100089F8001004B0BDE8F08700002DE9F0431F
:1017200083B0994616460F460446FFF7D7F994F85A
:101730003D1020291ED1054620688169890715D5ED
:10174000FFF7CCF9401B1928F6D90020202120638F
:1017500084F83D1084F83E00216C41F020012164A2
:1017600084F83C00022003B0BDE8F08394F83C10FC
:10177000012903D1022003B0BDE8F083012284F8DF
:101780003C200368DDE90B180A9ADB0703D10368E4
:1017900043F001030360036823F400630360212026
:1017A00084F83D00402084F83E00002020646262FE
:1017B0006185608D394620850020CFF6FF70E0629C
:1017C000204632464B46CDE9008501F01FFF18B197
:1017D000012003B0BDE8F083208D002850D02068A0
:1017E00008F10106014651F8142F12062CD49EB1BF
:1017F000B8F1000F5AD000BF086840055ED4FFF76B
:101800006DF9401B404556D82068014651F8142F09
:101810001206F1D518E000BF0A6852054ED40A68D6
:10182000120611D40A68520548D40A6812060BD46D
:101830000A68520542D40A68120605D40A6852059D
:101840003CD40A681206E7D5626A114611F8013BDA
:101850000361238D6162591E2185678D013F678574
:1018600047697F070AD50F0408D051780161911CA0
:101870006162991E2185628D013A62850904B1D1A8
:10188000204641462A4601F0F9FF38BB206801682E
:1018900041F400710160202084F83D00002084F8AC
:1018A0003E0084F83C0003B0BDE8F08308684005C2
:1018B00004D4FFF713F9202004E000BF6FF4806028
:1018C0000860042000212022216384F83D2084F850
:1018D0003E10226C1043206484F83C10206C0428D5
:1018E0007FF476AF2068016841F400710160012047
:1018F00003B0BDE8F08300002DE9F04786B0006832
:1019000045F60001C4F2000100268842CDE90466D4
:10191000CDE90266019631D045F20041C4F20001E2
:10192000884240F08380002443F630050094C4F2DE
:101930000205286801A940F002002860286800F02C
:101940000200009000984FF4407001901220CDE901
:101950000204032004900420059040F20040C4F2E9
:101960000200FEF7DFFF00942869202440F40010F5
:10197000286128691F2500F4001045E043F6300770
:101980000096C4F20207386840F2004440F00200BA
:1019900038603868C4F2020400F002000090009839
:1019A0000096386801AD40F00400386038684FF0A8
:1019B000120800F00400009000984FF4806001903D
:1019C0004FF003094FF0040A20462946CDE902866C
:1019D000CDF81090CDF814A0FEF7A4FF4FF480507E
:1019E000CDE9010803A880E8400604F58060294697
:1019F000FEF798FF00963869222440F48000386191
:101A00003869212500F480000090009828460021C4
:101A1000002200F091F8284600F07CF820460021D2
:101A2000002200F089F8204600F074F806B0BDE806
:101A3000F0870000704700007047000040F204008B
:101A400040F25851C2F20000C2F2000100780A6868
:101A5000104408607047000080B543F60040C4F2AF
:101A60000200016841F400710160016841F4806185
:101A70000160016841F480710160032000F088F882
:101A8000002000F005F800F027F8002080BD0000DD
:101A900070B540F20406C2F2000640F2140132783A
:101AA000C2F200014FF47A730968B3FBF2F2044604
:101AB000B1FBF2F1084600F0D3FB0F2C4FF001050B
:101AC00008D838B94FF0FF3021460022002500F039
:101AD00033F87460284670BD82B0002043F64001A0
:101AE0000190C4F202014A6842F480424A604A68A6
:101AF00002F480420192019A0090086840F0805000
:101B00000860086800F0805000900098072002B03C
:101B100000F03EB8002848BF704700F01F010122C6
:101B200002FA01F11C2202EAD0004EF20012CEF2BB
:101B3000000281507047000010B54EF60C5CCEF2EA
:101B4000000CDCF80030C3F3022E8EF00704042CE6
:101B500028BF0424BEF103034FF0FF3E0EFA04F445
:101B600038BF0023A14399400EFA03F39A4311436F
:101B700000F00F0200F160430901043A03F56443E9
:101B80006244002848BF02F10C03197010BD000028
:101B90004EF60C51CEF200010A684FF6FF031A40D0
:101BA00060F30A2242F0806040F0FD7008607047E8
:101BB00070B582B00020019043F64000C4F20200EC
:101BC0000168402641F0805101600068C4F20E2691
:101BD00000F080500190019847F204050120C4F202
:101BE00000053060FEF77AFF044600BF2868C00396
:101BF00006D4FEF773FF001BB0F57A7FF6D90EE02E
:101C000001207060FEF76AFF044600BF2868800369
:101C100008D4FEF763FF001BB0F57A7FF6D90320E6
:101C200002B070BD002002B070BD0000002804BFEB
:101C3000012070472DE9F04143F60808C4F202087C
:101C40000446D8F8F8030D4600F00F00884207D28A
:101C500088F8F853D8F8F80300F00F00A84277D1BD
:101C60002068810717D5410705D5D8F8001041F441
:101C7000E051C8F80010010705D5D8F8001041F46C
:101C80006041C8F80010D8F80010A26821F0F001F7
:101C90001143C8F80010C00740D1D8F8F80300F08D
:101CA0000F00A84207D988F8F853D8F8F80300F0D5
:101CB0000F00A8424CD12068410707D5D8F8001082
:101CC000E26821F4E0511143C8F80010000708D57C
:101CD000D8F80000216920F4604040EAC100C8F84B
:101CE000000000F07DF8D8F8001045F22462C1F33E
:101CF0000311C0F60002515C40F2140220FA01F117
:101D000040F20800C2F200000068C2F20002116056
:101D1000FFF7BEFE0020BDE8F08100BF6068811EB5
:101D2000022907D258F8081C89015CBF0120BDE8D0
:101D3000F08111E0012807D158F8081C89035CBF25
:101D40000120BDE8F08107E058F8081C890703D49A
:101D50000120BDE8F08100BFD8F8001021F0030198
:101D60000843C8F80000FEF7B9FE064641F288377E
:101D7000D8F80000616800F00C00B0EB810F8CD047
:101D8000FEF7ACFE801BB842F2D90320BDE8F0811B
:101D900040F2140043F60801C2F20000C4F202014E
:101DA0000068096845F23462C1F38221C0F600027E
:101DB000515CC8407047000040F2140043F608012F
:101DC000C2F20000C4F202010068096845F2346200
:101DD000C1F34231C0F60002515CC84070470000B8
:101DE00010B543F60404C4F202046068C0F3810134
:101DF00042F20040C0F2F400DFE801F042020818AD
:101E000041F20020C0F27A0010BD00BF216801F04D
:101E10003F02216823684902C3F3881116D4A1FB4D
:101E200000010023FEF7EAF917E000BF216801F086
:101E30003F02216823684902C3F3881114D4A1FB2F
:101E400000010023FEF7DAF915E000BF41F200209F
:101E5000C0F27A004843B0FBF2F021680222C1F3DD
:101E6000014102EB410109E041F20020C0F27A0099
:101E70004843B0FBF2F02168C1F30271B0FBF1F00E
:101E800010BD0000002804BF012070472DE9F0417B
:101E900082B00446007843F60006C007C4F202068A
:101EA0000CD0B06800F00C00042840F08980306845
:101EB000800303D56068002800F0508120788007F7
:101EC00023D5B06810F00C0F11D0B06800F00C00F2
:101ED000082802D17068400209D5B06800F00C00F3
:101EE0000C2840F09F807068400200F19B803068B1
:101EF000800703D5E068012840F03081306821690F
:101F000020F0F80040EAC10030602078000713D4C8
:101F1000207840072AD4A569002D00F01A81B06806
:101F200000F00C00082840F0AB80012D40F0E88064
:101F3000012002B0BDE8F0816069002840F2000095
:101F4000C4F2472000F088800121C0F8801EFEF70F
:101F5000C5FD0546706F8007DAD4FEF7BFFD401B54
:101F60000228F7D9032002B0BDE8F081306C5FEAA7
:101F7000C0080AD400200190306C40F080503064DA
:101F8000306C00F080500190019847F20007C4F2D5
:101F900000073868C00537D4386840F4807038606E
:101FA000FEF79CFD054600BF3868C0052CD4FEF73F
:101FB00095FD401B0228F7D9032002B0BDE8F0814F
:101FC000B06800F00C00082803D1706840023FF5AB
:101FD0006EAFB06800F00C000C2803D170684002AE
:101FE0003FF565AF61683068B1F5803F07D0B1F566
:101FF000A02F40F0CB8040F480203060306840F467
:1020000080303060CBE000BFA168306F012905D07F
:10201000052957D140F004003067306F40F00100CF
:10202000306759E0E068002800F09C800020C4F28E
:10203000472001210160FEF751FD05463068800709
:102040003FF55CAFFEF74AFD401B02284FF003004E
:10205000F4D902B0BDE8F0810021C0F8801EFEF77F
:102060003DFD0546706F80077FF552AFFEF736FDE8
:10207000401B0228F6D9032002B0BDE8F08100BF62
:102080000027C4F2472700203866FEF727FD022DFF
:1020900005460BD13068800140F19280FEF71EFDAD
:1020A000401B02284FF00300F4D9D2E730688001CA
:1020B0004FD5FEF713FD401B02284FF00300F5D962
:1020C000C7E700BF20F001003067306F002920F023
:1020D0000400306700F09880FEF700FD054641F2ED
:1020E000883700BF306F800700F1A080FEF7F6FC54
:1020F000401BB842F6D9032002B0BDE8F08100BF12
:102100007068E16900F480028A4227D1216A00F0F8
:102110003F028A4222D147F6C071626A0140B1EBA8
:10212000821F1BD1A16A4FF6FF73C903994300F4C4
:102130004032A1F580318A4210D1E16A00F070622C
:10214000B2EB016F0AD1216B00F0E040B0EB017FF0
:1021500004D1002002B0BDE8F08100BF012002B030
:10216000BDE8F0810020C4F2472000210160FEF7A5
:10217000B5FC0546306880077FF5C7AEFEF7AEFCBC
:10218000401B02284FF00300F4D962E720F48030AE
:1021900030603068002920F48020306050D0FEF795
:1021A0009DFC0546306880033FF588AEFEF796FC3F
:1021B000401B6428F6D9032002B0BDE8F08100BFBF
:1021C00004F11C052FCD246B084340EA8210D9038B
:1021D0004FF6FF729143A1F5803140EA0560084354
:1021E00040EA0470706001203866FEF777FC044610
:1021F00030688001ADD4FEF771FC001B02284FF05F
:102200000300F5D925E700BFFEF768FC054641F25B
:10221000883700BF306F800708D5FEF75FFC401B92
:10222000B8424FF00300F5D913E700BFB8F1000F33
:102230003FF571AE306C20F0805030646BE600BF2B
:10224000FEF74CFC054600BF306880037FF536AED4
:10225000FEF744FC401B64284FF00300F4D9F8E675
:10226000411E0020B0EB116F1CBF012070474EF2E1
:102270001002CEF2000251604EF62351CEF2000160
:10228000F0230B70072190601160704770470000C9
:1022900070470000B0B582B001680A68CC684B692D
:1022A00002F02F05202D04F0200505D125B102B044
:1022B000BDE8B04001F060BF5FEA027C1EBF03F0E2
:1022C000010E04F4907313EB0E0341D1036BD5069A
:1022D00018D5012B16D114F0100313D0002201924F
:1022E0000A6801924A680192019A496949064BD4E9
:1022F000818DC28DC38D002B18BF914240F0F281B9
:1023000002B0B0BD13062DD514F080032AD090F88A
:102310003D20212AF4D18268B2F5805F03D10269A1
:10232000002A00F06382026A531C036212784A603A
:10233000C28C013A1304C284E2D1C86820F0800044
:10234000C860C86840F04000C86002B0B0BD00BFBF
:10235000D30718BF14F4807340F0CE80530700F108
:10236000D180D6E05206CBD514F04002C8D0CA685E
:1023700022F04002CA60202180F83D1002B0BDE882
:10238000B04000F039BC00BF826B11684B689DB251
:10239000002DB5D0818D8D42B2D2C385D269B2F500
:1023A000807F00F0A180016851E8031F026821F4DA
:1023B000807142E80313DBB1016851E8031F026832
:1023C00021F4807142E8031393B1016851E8031FBF
:1023D000026821F4807142E803134BB1016851E8AF
:1023E000031F026821F4807142E80313002BDAD145
:1023F000016851E8051F026821F0010142E8051358
:10240000BBB3016851E8051F026821F0010142E8F1
:10241000051373B3016851E8051F026821F001013B
:1024200042E805132BB3016851E8051F026821F04B
:10243000010142E80513002BDAD11AE0016851E8E6
:10244000051F026821F0400142E80513DBB1016875
:1024500051E8051F026821F0400142E8051393B1DD
:10246000016851E8051F026821F0400142E80513A8
:102470004BB1016851E8051F026821F0400142E8B4
:102480000513002BDAD1202180F83E1000210163D2
:10249000016851E8031F026821F0100142E80313AC
:1024A000DBB1016851E8031F026821F0100142E826
:1024B000031393B1016851E8031F026821F0100172
:1024C00042E803134BB1016851E8031F026821F091
:1024D000100142E80313002BDAD1816B0446084651
:1024E000FEF7AEF9A18D2046C28D891A89B202B0DD
:1024F000BDE8B040FFF7CABE036C43F001030364BC
:10250000530706D5BEF1000F03D0036C43F002035E
:102510000364930706D5BEF1000F03D0036C43F0AC
:1025200004030364BCF1000F06D55EEA050303D083
:10253000036C43F008030364036C002B3FF4E0AE2C
:10254000920605D525B1044601F016FE2168204605
:102550004969026C01F0400102F00802891800F09C
:10256000B98000BF016851E8031F026821F490712F
:1025700042E80313BBB3016851E8031F026821F46A
:10258000907142E8031373B3016851E8031F0268B6
:1025900021F4907142E803132BB3016851E8031F43
:1025A000026821F4907142E80313002BDAD11AE09B
:1025B000016851E8051F026821F0010142E8051396
:1025C000DBB1016851E8051F026821F0010142E812
:1025D000051393B1016851E8051F026821F001015C
:1025E00042E805134BB1016851E8051F026821F06C
:1025F000010142E80513002BDAD1016B012924D136
:10260000016851E8031F026821F0100142E803133A
:10261000DBB1016851E8031F026821F0100142E8B4
:10262000031393B1016851E8031F026821F0100100
:1026300042E803134BB1016851E8031F026821F01F
:10264000100142E80313002BDAD1202180F83E105C
:102650000021016301684969490640F1C1800168B0
:1026600051E8051F026821F0400142E80513DBB183
:10267000016851E8051F026821F0400142E8051396
:1026800093B1016851E8051F026821F0400142E85A
:1026900005134BB1016851E8051F026821F04001A4
:1026A00042E80513002BDAD1816B002900F09880F5
:1026B00044F26D12C0F60002044608460A65FEF7B1
:1026C00007F900283FF41CAEA06B016D02B0BDE815
:1026D000B04008470446FFF7DBFD0020206402B04D
:1026E000B0BD00BF891A00BF026852E8032F03681B
:1026F00022F4907243E80325BDB3026852E8032F29
:10270000036822F4907243E8032575B3026852E827
:10271000032F036822F4907243E803252DB3026867
:1027200052E8032F036822F4907243E80325002D3A
:10273000DAD11AE0026852E8052F036822F001029C
:1027400043E80525DDB1026852E8052F036822F051
:10275000010243E8052595B1026852E8052F036898
:1027600022F0010243E805254DB1026852E8052F29
:10277000036822F0010243E80525002DDAD120226A
:1027800080F83E2000220263026852E8032F0368AB
:1027900022F0100243E80325DDB1026852E8032F5E
:1027A000036822F0100243E8032595B1026852E85D
:1027B000032F036822F0100243E803254DB102689D
:1027C00052E8032F036822F0100243E80325002D8E
:1027D000DAD189B202B0BDE8B040FFF757BD00BF03
:1027E00002B0BDE8B040FFF753BD00BF026A32F847
:1027F000023B6FF35F234B60026299E5002804BF40
:102800000120704710B5044690F83D0028B900201B
:1028100084F83C00204600F021F8242084F83D0094
:102820002068C16821F40051C160204601F024FDF8
:102830002068016921F490410161416921F02A0178
:102840004161C16841F40051C16000202021206431
:1028500084F83D1084F83E1010BD000080B586B0AD
:1028600044F200410068C4F200010022884205924F
:10287000CDE903220292019202D006B080BD00BFD2
:1028800043F630000092C4F20200036943F40033BF
:102890000361036903F400330093009B0092036813
:1028A00043F001030360006800F00100009000980D
:1028B0000C2001900220CDE90202032004900720A1
:1028C000059001F5DE3001A9FEF72CF82620002145
:1028D0000022FFF731F92620FFF71CF906B080BD72
:1028E00090F83E30202B0BD100294FF0010318BF88
:1028F000002A01D11846704790F83C30012B03D1D3
:1029000002231846704700BF00230363816222211F
:102910008285C285036480F83E100269016880F8F0
:102920003C301AB1C86840F48070C860486940F013
:1029300001004861C86840F02000C8601846704730
:1029400040F21803C2F20003187840F258510130E7
:102950001870C2F2000153FA80F0D1F800C000F103
:10296000080140F21450C2F200000122C3F804C072
:10297000FFF7B6BF2DE9F04381B0044690F83D0063
:1029800020280DD10F4600294FF0010018BF002A62
:1029900002D101B0BDE8F08394F83C00012803D1D6
:1029A000022001B0BDE8F083012084F83C00002043
:1029B000206421201D4684F83D001646FEF78EF85F
:1029C000A684E684A1680646B1F5805F03D120693C
:1029D000002800F00D81B8460027002084F83C0054
:1029E000E18C2068002900F08F8005F101090CE0DE
:1029F000B8F1000F28D018F8011B4160E18C0139B3
:102A0000E184E18C002900F07F8001680906EFD4A1
:102A1000B9F1000F0AD0FDB1FEF760F8801BA842A3
:102A20001AD8206801680906F6D5E1E701680906A9
:102A3000DED4016809065CBF01685FEA0161D7D492
:102A400001680906F2D5D3E737F8021B4FF00008FA
:102A50006FF35F21D1E700BF206850E8030F2168C2
:102A600020F4D07041E80302BAB3206850E8030FA5
:102A7000216820F4D07041E8030272B3206850E866
:102A8000030F216820F4D07041E803022AB32068C4
:102A900050E8030F216820F4D07041E80302002AB7
:102AA000DAD11AE0206850E8050F216820F0010013
:102AB00041E80502DAB1206850E8050F216820F0EE
:102AC000010041E8050292B1206850E8050F216835
:102AD00020F0010041E805024AB1206850E8050FE6
:102AE000216820F0010041E80502002ADAD1202007
:102AF00084F83D0084F83E00002084F83C00032068
:102B000001B0BDE8F08300BF016849060FD4F5B1FC
:102B1000691C17D10168490609D4016849065CBFE0
:102B200001685FEA416102D401684906F2D52020BC
:102B300084F83D00002001B0BDE8F0832068006803
:102B40004006F4D4FDF7CAFF801BA842F6D92068DE
:102B500050E8030F216820F4D07041E80302E2B38B
:102B6000206850E8030F216820F4D07041E8030288
:102B70009AB3206850E8030F216820F4D07041E830
:102B8000030252B3206850E8030F216820F4D0708C
:102B900041E80302002ADAD11FE000BF206850E8B4
:102BA000050F216820F0010041E80502002A9ED0AF
:102BB000206850E8050F216820F0010041E8050277
:102BC000002A94D0206850E8050F216820F0010009
:102BD00041E80502002A3FF48AAF206850E8050F5B
:102BE000216820F0010041E80502002AD6D17EE7E5
:102BF0004FF00008F1E6000070470000FEE700001B
:102C000040F26C40C2F20000FDF772BF40F26C402F
:102C1000C2F20000FEF710B840F2C040C2F200005D
:102C2000FDF766BF40F2C040C2F20000FEF704B8F4
:102C300010B581B000210091806B40F21401C2F206
:102C4000000190F83DC009684BF28952C908C1F2F1
:102C5000F842A1FB0212110A23225143009100996C
:102C600011B30099013900910168096889051FD5E0
:102C70000099C9B100990139009101680968890575
:102C800016D5009981B10099013900910168096850
:102C900089050DD5009939B1009901390091016874
:102CA00009688905DBD403E0016C41F0200101646F
:102CB000446B4FF0000E002C1CBF0021E163816BC0
:102CC00000291CBF0022CA630268002C136823F489
:102CD00080631360A0F82AE018BFC4F850E0002910
:102CE0001CBF00230B65116821F00101116090F8F1
:102CF0003D1060290CD1202180F83D10002180F882
:102D00003E10016401B0BDE81040FDF7EDBE00BF0C
:102D10000CF02801282911D1116841F0010111603E
:102D2000116841F48061116000210163282180F85D
:102D30003D1001B0BDE81040FEF77CBA202180F8BC
:102D40003D10002180F83E1001B0BDE81040FEF7B4
:102D500071BA000010B5044690F83D1090F83E009E
:102D6000B0F1100218BF0122403818BF0120024202
:102D700008BF222934D001F0280028283AD10020A9
:102D80002063282084F83D0020684168090542D569
:102D9000416821F400614160606B90F835100129B1
:102DA00058D1A06B42F63141C0F600010165FDF734
:102DB0008FFD002861D020684169490606D5006969
:102DC000616A0870616A206801316162016821F0FE
:102DD00001010160202084F83D00A06B4BE000BFA2
:102DE0002068026822F4006202604268120505D57C
:102DF0000CE000BF20684268120507D4602905D0A6
:102E0000202184F83D10002184F83E100021216328
:102E100041680905BCD494F83D10602950D12021A7
:102E200084F83D10002121644169490606D50069F6
:102E3000616A0870616A206801316162016821F08D
:102E4000010101602046FDF74FFE206C000717D1FD
:102E50001BE000BF42F63141C0F600010165FDF7FD
:102E600037FD50B12168606B0A6822F001020A60E8
:102E7000202184F83D10016D8847206C000704D0A4
:102E80002068416821F4E061416094F83D00216CC4
:102E9000490758BF10BD282810D10020CFF6FF7079
:102EA000E06200212020216384F83D00204684F860
:102EB0003E10BDE81040FEF771BA00BF10BD00BF64
:102EC0004169490605D50069616A0870606A013088
:102ED00060622046FEF7AEF9206C0007D0D1D4E73F
:102EE000C16A428D042A07D10168426A4B6823F403
:102EF00080634B60096911E0428D032A16D1026894
:102F00000229536823F48063536005D0042903D059
:102F1000116821F4806111601169426A1170416A7F
:102F200001314162418D013941857047428D022A4C
:102F300012D101390F2919D8DFE801F0081218124F
:102F400018181818181818181818180801680A6896
:102F500022F480620EE000BF0168426ACAE700BF47
:102F600001680A6842F4806204E000BF01680A68F0
:102F700042F400720A600969426A1170416A02688B
:102F80004B1C4362438D013B438512694A70416A81
:102F9000026801314162418D01394185516821F456
:102FA00040715160202180F83D1090F83E200021B2
:102FB000402A80F83E1003D10163FEF7F5B900BF47
:102FC00012210163FEF7ECB981B090F83D1022297F
:102FD0000FD1418D04290FD30168426A096911702C
:102FE000416A01314162418D01394185418D032999
:102FF0005ED001B0704700BFC26A012958D8022ACA
:1030000056D00021009140F21401C2F2000109687B
:103010004BF28952C908C1F2F842A1FB0212110A0F
:1030200001EB81010091009901390091009900297B
:1030300046D001680A6892051AD5009901390091B5
:103040000099E9B301680A68920511D50099013920
:1030500000910099A1B301680A68920508D500990A
:1030600001390091009959B301680A689205DAD4D0
:103070000A6822F480620A604A6822F4E0624A60C8
:103080000969426A1170416A01314162418D013919
:103090004185202180F83D1090F83E200021402AF3
:1030A00080F83E1028D1016301B0FEF77DB900BF62
:1030B0000068416821F48061416001B0704700BF41
:1030C000016C41F0200101640168426A4B6823F4FD
:1030D000E0634B6009691170416A01314162418DC1
:1030E00001394185202180F83D10002180F83E10F3
:1030F00001B0FEF79FB800BF1221016301B0FEF7D7
:103100004FB90000C16A90F83D20212A18BF7047CE
:10311000428D4AB1416A026811F8013B1361416274
:10312000418D01394185704711F5803F18BF08294D
:1031300018D101684A6822F4E0624A600A6842F4E1
:1031400000720A6000212022016380F83D2090F87F
:103150003E2080F83E10402A08BFFEF727B9FEF750
:1031600021B900BF2029E4D001684A6822F4E06256
:103170004A6011210163002180F83E10202180F86F
:103180003D10FEF70FB9000090F83D1090F83EC0DA
:10319000C26A038D002B08BF212919D0212905D02F
:1031A000BCF1400F08BF222900D07047418D69B3A0
:1031B00090F83E10402908BF00F040B8416A02680C
:1031C00011F8013B13614162418D0139418570471E
:1031D00012F5803F18BF082A1ED101684A6822F400
:1031E000E0624A600A6842F400720A60002120220C
:1031F000016380F83D2090F83E2080F83E10402A80
:1032000008BFFEF7D3B8FEF7CDB800BF006841682D
:1032100021F4806141607047202ADED001684A684D
:1032200022F4E0624A6011210163002180F83E101F
:10323000202180F83D10FEF7B5B8000090F83D1051
:10324000026D5AB1026D012A14D10168826CD2B2AA
:103250000A61016D01310165704700BFC26C816C6C
:10326000012A17D10268C9B21161016D02310165ED
:10327000704700BF026D022A18BF7047222911D182
:1032800001680A6842F480720A60016D01310165CB
:10329000704700BF0268C1F307211161016D013160
:1032A00001657047428D5AB1212909D1416A0268EE
:1032B00011F8013B13614162418D0139418570472D
:1032C000428D002A08BF212900D0704701684A6852
:1032D00022F4E0624A600A6842F400720A60002147
:1032E0002022016380F83D2080F83E10FEF75EB892
:1032F0002DE9F04383B0044600680B9D0A9E0768E1
:10330000994647F4806707600768904647F48073E2
:10331000036043690F46DA071DD1711C11D0002EDE
:1033200000F03681FDF7DAFB401BB04200F232813B
:1033300020684169C907F5D00DE000BF4169C907A0
:1033400009D14169C90706D14169C90704BF41696B
:103350005FEAC171F2D007F0FE0707614169890792
:1033600036D44169721C1CD0490510D4002E00F0DF
:10337000398100BFFDF7B2FB401BB04200F234813F
:1033800020684169890723D441694905F2D501685C
:1033900041F4007101606FF480614161042024E117
:1033A00041694905F3D44169890711D44169490547
:1033B000EDD4416989070BD441694905E7D44169D6
:1033C000890705D441694905E1D441698907E7D5F1
:1033D00000210291014651F8142F02924A6802928C
:1033E000029A0A68120621D4002E00F0AD80721CE9
:1033F00040F086800A68520500F1AE800A68120625
:1034000014D40A68520500F1A7800A6812060DD488
:103410000A68520500F1A0800A68120606D40A68FC
:10342000520500F199800A681206E3D5B9F1010F3F
:1034300025D04FEA18210161014651F8142F1206D8
:103440001DD4002E00F08080721C78D10A685205CD
:1034500000F182800A68120611D40A6852057BD4F2
:103460000A6812060BD40A68520575D40A68120657
:1034700005D40A6852056FD40A681206E6D55FFAC9
:1034800088F10161014651F8142F12061BD4002E59
:103490005AD0721C43D10A6852055DD40A681206DC
:1034A00011D40A68520557D40A6812060BD40A6868
:1034B000520551D40A68120605D40A6852054BD445
:1034C0000A681206E7D50168002241F480710160A4
:1034D00020464FF001113346009500F023FA0028F2
:1034E00070D02068006864E0FDF7F8FA401BB04235
:1034F0002FD82068014651F8142F12063FF596AFD9
:1035000008684005F0D527E0FDF7E8FA401BB04217
:103510001FD82068014651F8142F1206D3D408682A
:103520004005F1D518E000BFFDF7D8FA401BB042C6
:103530000FD82068014651F8142F12069FD408684E
:103540004005F1D508E000BF0868400504D4FDF748
:10355000C5FA202004E000BF6FF4806008600420FA
:1035600000212022216384F83D2084F83E10226C43
:103570001043206484F83C10206C042841D120685A
:10358000016841F400710160012003B0BDE8F083DF
:10359000FDF7A4FA00202021206384F83D1084F870
:1035A0003E00216C41F020012164216884F83C0038
:1035B0000868C00544BF4FF400702064032003B0C6
:1035C000BDE8F08347F0010C27680221C0F2010139
:1035D000204632462B46C7F810C003B0BDE8F04382
:1035E00000F044BAFDF77AFA20200021202221635E
:1035F00084F83D2084F83E10226C1043206484F847
:103600003C10012003B0BDE8F08300002DE9F04339
:1036100081B00446006890460268099D42F48072B9
:1036200002604269089E9946D2070F461DD1711C5F
:1036300011D0002E00F0D080FDF750FA401BB042B0
:1036400000F2CC8020684169C907F5D00DE000BFC9
:103650004169C90709D14169C90706D14169C9074B
:1036600004BF41695FEAC171F2D007F0FE01016158
:103670004169890736D44169721C1CD0490510D4B0
:10368000002E00F0E78000BFFDF728FA401BB04293
:1036900000F2E28020684169890723D44169490525
:1036A000F2D5016841F4007101606FF480614161FD
:1036B0000420D2E041694905F3D44169890711D456
:1036C00041694905EDD4416989070BD44169490530
:1036D000E7D44169890705D441694905E1D44169C5
:1036E0008907E7D500210091014651F8142F009277
:1036F0004A680092009A0A6812061ED4002E00F052
:103700008580721C53D10A68520500F187800A68CF
:10371000120612D40A68520500F180800A68120667
:103720000BD40A68520579D40A68120605D40A68CF
:10373000520573D40A681206E5D5B9F1010F23D0FA
:103740004FEA18210161014651F8142F12061BD4CB
:10375000002E5BD0721C3AD10A6852055ED40A680A
:10376000120611D40A68520558D40A6812060BD4FE
:103770000A68520552D40A68120605D40A6852052E
:103780004CD40A681206E7D55FFA88F1016100207F
:1037900001B0BDE8F08300BFFDF7A0F9401BB042C7
:1037A00039D82068014651F8142F1206C5D408688C
:1037B0004005F1D532E000BFFDF790F9401BB04263
:1037C00029D82068014651F8142F1206DCD4086865
:1037D0004005F1D522E000BFFDF780F9002020214F
:1037E000206384F83D1084F83E00216C41F02001F4
:1037F0002164216884F83C000868C00544BF4FF488
:1038000000702064032001B0BDE8F0830868400523
:1038100004D4FDF763F9202004E000BF6FF480605A
:103820000860042000212022216384F83D2084F8D0
:103830003E10226C1043206484F83C10206C042855
:1038400017D12068016841F400710160012001B0C6
:10385000BDE8F083FDF742F92020002120222163FA
:1038600084F83D2084F83E10226C1043206484F8D4
:103870003C10012001B0BDE8F083000070B5036882
:10388000044653F8140F400737D40E46F1B1701CAC
:1038900024D100BF1868400532D4186840072CD4E2
:1038A000186840052CD41868400726D418684005CD
:1038B00026D41868400720D41868400520D418681A
:1038C00040074FF0000048BF70BDE3E718684005AF
:1038D00016D4FDF703F9202016E000BF154600BFFF
:1038E000186840050CD4FDF7F9F8401BB042F2D837
:1038F000236853F8140F4007F2D5002070BD00BFB5
:103900006FF480601860042000212022216384F875
:103910003D2084F83E10226C10432064012084F87E
:103920003C1070BD2DE9F04105461446DDF81880C5
:1039300001F47F002A681E46B0F5803F8FB23FD168
:1039400050693840C01BB0FA80F04009A04277D1DE
:10395000701C2BD0002E77D0FDF7C0F8A0EB08002C
:10396000B04273D8286840693840C01BB0FA80F074
:103970004009A042F0D063E050693840C01BB0FA63
:1039800080F04009A0425BD150693840C01BB0FABA
:1039900080F04009A04253D150693840C01BB0FAB2
:1039A00080F04009A0424FF000005DD150693840DE
:1039B000C01BB0FA80F04009A042DDD040E000BF5B
:1039C00090693840C01BB0FA80F04009A04237D15E
:1039D000701C2DD0C6B300BFFDF780F8A0EB080027
:1039E000B04233D8286880693840C01BB0FA80F0F4
:1039F0004009A042F0D023E090693840C01BB0FAE3
:103A000080F04009A0421BD190693840C01BB0FA39
:103A100080F04009A04213D190693840C01BB0FA31
:103A200080F04009A0424FF0000018BFBDE8F081CF
:103A300090693840C01BB0FA80F04009A042DBD04A
:103A40000020BDE8F08100BFFDF748F800202021EC
:103A5000286385F83D1085F83E00296C41F020016F
:103A6000296485F83C000120BDE8F081F0B581B003
:103A7000044600681D4643698FB203EA0701B94254
:103A800002D1002001B0F0BD4169164601321AD0C2
:103A900049050ED4A6B300BFFDF720F8401BB04285
:103AA00030D8206841693940B942EAD041694905B6
:103AB000F2D5016841F4007101606FF480614161E9
:103AC000042020E041694905F3D441693940B942F5
:103AD000D7D041694905ECD441693940B942D0D0C9
:103AE00041694905E5D441693940B942C9D04169C4
:103AF0004905DED441693940B942E3D1C1E700BF8D
:103B0000FCF7ECFF202000212022216384F83D20D7
:103B100084F83E10226C1043206484F83C1001208D
:103B200001B0F0BD80B540F20040C4F20200202197
:103B3000FCF7C8FF80BD000070B586B03220FCF7EE
:103B4000DDFE00266CA08DF80F6001F059FD012507
:103B50000DF10F00CDE9000540F2C040C2F20000B7
:103B6000D021752201230295FDF722FC9DF80F005C
:103B7000682840F0AB8045F6A850C0F600006821E8
:103B800001F0ACF8802040F2C0448DF8100004A889
:103B9000C2F20004CDE900052046D0216B220123AA
:103BA0000295FDF7BBFD6420FCF7A8FE0DF11100A6
:103BB000CDE900052046D0216B2201238DF811604C
:103BC0000295FDF7ABFD3220FCF798FE27208DF81B
:103BD00012000DF11200CDE900052046D021192276
:103BE00001230295FDF79AFD3220FCF787FE0DF1C7
:103BF0001300CDE900052046D0211A2201238DF8BB
:103C000013600295FDF78AFD3220FCF777FE05A8C8
:103C1000CDE900052046D0211B2201238DF8146038
:103C20000295FDF77BFD3220FCF768FE0DF11500D3
:103C3000CDE900052046D0211C2201238DF8156016
:103C40000295FDF76BFD3220FCF758FE40F238007C
:103C50000021C2F20000C4F203314FF08D429FED0B
:103C6000240BC0E90012002145F6C850C4F2D0016F
:103C700053EC102BC0F60000CDE9006101F02EF8E6
:103C800010208DF816000DF11600CDE90005204634
:103C9000D021372201230295FDF740FD3220FCF7A9
:103CA0002DFE0DF11700CDE900052046D021382268
:103CB00001238DF817500295FDF730FD3220FCF7F7
:103CC0001DFE2AA001F09CFC06B070BD0FA001F003
:103CD00097FC9DF80F100FA001F000F818A400BF8A
:103CE000204601F08DFC6420FCF708FEF8E700BFD9
:103CF0000000000000606040436865636B696E67A8
:103D0000204D5055363035302E2E2E004552524F14
:103D1000522100004D5055363035302077686F5FA6
:103D2000616D5F69203A20307825303278207368E1
:103D30006F756C6420626520307836380A000000A8
:103D400077686F20616D2069206572726F722E2016
:103D500043616E206E6F74207265636F676E697A5F
:103D600065206D7075363035300000004D50553689
:103D70003035302073657474696E6720697320660E
:103D8000696E6973686564002DE9F04188B0044686
:103D90000E200DF11201CDE9001040F2C0400127C4
:103DA000C2F20000D0213B2201230297FDF700FB65
:103DB000BDF81200BDF81410BDF8162040F2380806
:103DC000C5BA91FAB1FCBDF81830D7BAC2F20008F2
:103DD00000EE105A98ED011A02EE10CA03EE107AA6
:103DE000DEBAB8EEC00AB8EEC22AB8EEC33A80EE28
:103DF000010A82EE012A83EE011A03EE106A9FED9A
:103E00002C4AB8EEC33A83EE043A00BA000C208084
:103E100008BA000C608010BA000CA08018BABDF877
:103E20001A10000CE080CEBA08BABDF81C10000CC5
:103E30002081CFBA08BABDF81E10000C608108BA04
:103E4000000CA08113EE100ACDBA84ED040A84EDB3
:103E5000052A84ED061AFCF7BBFA9FED130B53EC11
:103E6000102BFCF70EFAFCF7C6FA00EE106A98ED7C
:103E7000001A02EE107A03EE105AB8EEC00AB8EE3D
:103E8000C22AB8EEC33A80EE010A82EE012A83EE1E
:103E9000011AE06184ED080A84ED092A84ED0A1A0A
:103EA00008B0BDE8F08100BFA4703D0AD74342408E
:103EB0000000AA432DE9F04186B0002643F6300009
:103EC0000596CDE90366CDE901660096C4F20200CD
:103ED0000168002441F0040101600168C4F2020499
:103EE00001F004010091009900960168012241F05F
:103EF000800101600168202701F080010091009994
:103F0000009601684FF0010841F00101016001686D
:103F100001F00101009100990096016841F0020151
:103F200001600068202100F0020000900098204607
:103F3000FCF7CEFD4FF4005001904FF4041001AD9A
:103F4000CDE9020604F500602946FCF7EBFC2046AB
:103F50002946CDE90178CDE90366FCF7E3FC04F5D9
:103F600080602946CDE901760396FCF7DBFC06B0BC
:103F7000BDE8F08180B540F26C4045F20041C2F2EC
:103F80000000C4F2000148F2A06200234FF4804C0C
:103F9000C0F2010280E80E00C0E9033CC0E905332D
:103FA000C0E90733FDF748F9002818BFFCF742FCC9
:103FB000BDE8804000F024BB80B540F2C04045F62B
:103FC0000001C2F20000C4F2000141F68022002389
:103FD0004FF4804CC0F2060280E80E00C0E9033CBA
:103FE000C0E90533C0E90733FDF726F9002808BF0B
:103FF00080BDBDE88040FCF71DBC000080B540F2EC
:10400000145044F20041C2F20000C4F20001002347
:104010004FF00C0C4FF4E13280E80E00C0E903339E
:10402000C0E905C3C361FEF7E9FB002808BF80BDF6
:10403000BDE88040FCF7FEBBFEE70000FEE70000A5
:104040007047000040F26C010020C2F200014FF006
:10405000000C00BF6FF07F03CA188033B3F5607F98
:1040600082F88000F8D16FF07F0300BFCA18803358
:10407000B3F5607F82F88100F8D10CF1020CBCF13D
:10408000800F01F1020108BF7047E3E770470000AD
:10409000FDF7D4BC10B594B007AC20463421FCF732
:1040A000E5F8002043F640010690CDE90400CDE993
:1040B00002000190C4F202010A6842F080520A60D4
:1040C000096801F080510191019947F200010190C6
:1040D000C4F200010A6842F440420A600968012201
:1040E00001F44041019101990221CDE90D10082010
:1040F0000F90B4200A921022CDE9100120460791BA
:104100000B92CDE91211FDF7BDFE28B1EFF310803F
:1041100072B600BFFEE700BFFDF74AFD20B1EFF326
:10412000108072B6FEE700BF0F20029002200390BD
:10413000002004904FF4A05005904FF4805006905A
:1041400002A80521FDF772FD20B1EFF3108072B6D1
:10415000FEE700BF14B010BD4EF68850CEF200004E
:10416000016841F47001016070470000806B00211C
:10417000C185C184FEF78CB881B090F83E10222929
:1041800021D183680246B3F5805F09D152F8281F18
:1041900052F8183C002B63D003685B680AE000BF4C
:1041A00052F8281F13B90369002BF5D003685B6828
:1041B00003F07F030B70116801311160C18D01396B
:1041C0000A04C18502D001B0704700BF0168CA6807
:1041D00022F02002CA60CA6822F48072CA604A696A
:1041E00022F001024A61202180F83E10016B012972
:1041F0003ED10021016300BF016851E8031F02683E
:1042000021F0100142E80313DBB1016851E8031FFC
:10421000026821F0100142E8031393B1016851E8EC
:10422000031F026821F0100142E803134BB101683B
:1042300051E8031F026821F0100142E80313002B2C
:10424000DAD101680A68D20606D5002200920A680F
:104250000092496800910099818D01B0FEF716B86F
:10426000026852686FF35F2221F8022B8162A5E792
:1042700001B0FEF765BB0000B0B50446006804F16C
:1042800008030ECB0569194325F440552A43026102
:104290006269E3691143C268194349F20C639A43A6
:1042A0001143C1604169A26921F4407141F20043A8
:1042B000114340F48062C4F201039A42416103D188
:1042C000FDF77AFD02E000BFFDF762FDE1694FF600
:1042D0009C7563681922C0F6FF75B1F5004FA0FB0D
:1042E00002011FD15A00DB0FFBF788FF48F21F5174
:1042F000C5F2EB11A0FB01235A0905F1805302FB23
:104300000300322303EBC000A0FB01014FF4F8705F
:1043100000EA111000EB0210C1F3421108442168B9
:104320008860B0BD9A009B0FFBF768FF48F21F51F1
:10433000C5F2EB11A0FB01235A0902FB0500322351
:1043400003EB0010A0FB0101F02000EA511000EB8C
:104350000210C1F34311084421688860B0BD000019
:1043600040F21450C2F20000FDF794BFFEE70000D7
:1043700080B582B0019040F21450C2F2000001A951
:1043800001220A23FEF7F6FA019802B080BD000070
:1043900094B0FDF761FBFFF77DFEFFF78BFDFFF7A4
:1043A0002DFEFFF7E7FDFFF707FE40F2145040F245
:1043B0002001C2F20000C2F200010122FEF790FAD1
:1043C000FFF7BAFB00F01CF9002540F20C0B40F29D
:1043D000400A70A4C4F20205C2F2000B70A674A7D2
:1043E000C2F2000A02E000BF00F084FA204601F0A9
:1043F00007F94FF4FA70FCF781FA00F041FC284607
:1044000020210122FCF764FBFFF71CFE00200021A5
:1044100000F068FADBE900123046012300F012FCDC
:10442000FFF780FB0146384600F058FCFFF77AFBA7
:104430000128D9D15046FFF7A7FCDAF810005F46F3
:10444000DAE905B8FBF7C4FF814658460E46BB467D
:10445000FBF7BEFF41EC180B4046FBF7B9FF45F6F2
:10446000FB5841EC100BC0F6000840464A46334664
:104470008DED008B8DED020B00F030FC0AF1200772
:10448000C1CFFBF7A5FF05463046A1460C46FBF71A
:104490009FFF41EC180B3846FBF79AFF41EC100BDD
:1044A00040462A4623468DED008B8DED020B00F031
:1044B00015FCBAF90010BAF90220BAF904303DA08F
:1044C00000F00CFC00200C2100F00CFA0AF11005A1
:1044D00031CDFBF77DFF064620460F46FBF778FF00
:1044E00041EC180B2846FBF773FF41EC100B0DF164
:1044F0001008404632A132463B468DED008B8DEDD3
:10450000020B00F0FBFBDBE900124046012300F048
:1045100099FB0020182100F0E5F90AF1200531CDC2
:10452000FBF756FF064620460F464C46FBF750FF6A
:1045300041EC180B28460025C4F20205FBF748FFA2
:1045400041EC100B404624A132463B468DED008BDA
:1045500013A68DED020B00F0D1FBDBE90012404603
:10456000012300F06FFB0020242100F0BBF9BAF911
:104570000020BAF90230BAF9047040461CA1009735
:104580000BA700F0BBFBDBE900124046012300F063
:1045900059FB29E74920646964206974200D0000F3
:1045A0004D505536303530204461746100000000B4
:1045B00025640A0025642C2025642C2025640A002B
:1045C0004163633A20252E32662C20252E32662C3C
:1045D00020252E32660000004779726F3A20252E82
:1045E00032662C20252E32662C20252E32660000C5
:1045F0005261773A2025642C2025642C2025640004
:104600002DE9F04784B06420FCF778F940F26C445F
:10461000AE20C2F200048DF80F000A2601270DF12A
:104620000F052046782100220123CDE9005702968C
:104630004FF00008FDF772F84FF02009204678216E
:10464000002201238DF80F90CDE900570296FDF767
:1046500065F84FF0100A20467821002201238DF8DA
:104660000FA0CDE900570296FDF758F8B0208DF85D
:104670000F002046782100220123CDE90057029641
:10468000FDF74CF8C8208DF80F0020467821002255
:104690000123CDE900570296FDF740F82046782126
:1046A000002201238DF80F80CDE900570296FDF717
:1046B00035F820467821002201238DF80FA0CDE99E
:1046C00000570296FDF72AF840208DF80F0020468B
:1046D000782100220123CDE900570296FDF71EF84C
:1046E00081208DF80F002046782100220123CDE99A
:1046F00000570296FDF712F8FF208DF80F002046B4
:10470000782100220123CDE900570296FDF706F833
:10471000A1208DF80F002046782100220123CDE949
:1047200000570296FCF7FAFFA6208DF80F002046EE
:10473000782100220123CDE900570296FCF7EEFF15
:10474000A8208DF80F002046782100220123CDE912
:1047500000570296FCF7E2FF3F208DF80F0020463D
:10476000782100220123CDE900570296FCF7D6FFFD
:10477000A4208DF80F002046782100220123CDE9E6
:1047800000570296FCF7CAFFD3208DF80F00204691
:10479000782100220123CDE900570296FCF7BEFFE5
:1047A00020467821002201238DF80F80CDE90057A3
:1047B0000296FCF7B3FFD5208DF80F002046782134
:1047C00000220123CDE900570296FCF7A7FFF02055
:1047D0008DF80F002046782100220123CDE90057F3
:1047E0000296FCF79BFFD9208DF80F002046782118
:1047F00000220123CDE900570296FCF78FFF22200B
:104800008DF80F002046782100220123CDE90057C2
:104810000296FCF783FFDA208DF80F0020467821FE
:1048200000220123CDE900570296FCF777FF122002
:104830008DF80F002046782100220123CDE9005792
:104840000296FCF76BFFDB208DF80F0020467821E5
:1048500000220123CDE900570296FCF75FFF2046B6
:104860007821002201238DF80F90CDE900570296A0
:10487000FCF754FF8D208DF80F0020467821002290
:104880000123CDE900570296FCF748FF14208DF86C
:104890000F002046782100220123CDE9005702961F
:1048A000FCF73CFFAF208DF80F0020467821002256
:1048B0000123CDE900570296FCF730FF40F26C006F
:1048C000C2F200004FF48061FBF7D0FC00F012F858
:1048D00040F23401C2F200010120C1F8008004B0AE
:1048E000BDE8F08740F23402C2F20002108051802D
:1048F000704700002DE9F04F85B040F26C0640F2A1
:104900006C44C2F200060A270125C2F200040DF130
:1049100013084FF064094FF0800A4FF0000B00BFFE
:104920004BF0B0008DF811000DF11100CDE900053C
:1049300020467821002201230297FCF7EFFE002099
:104940008DF812000DF11200CDE900052046782106
:10495000002201230297FCF7E1FE10208DF81300DE
:104960002046782100220123CDE900850297FCF73B
:10497000D5FE2046782140220123CDE9006ACDF8FA
:104980000890FCF7CBFE0BF1010BBBF1080F06F111
:104990008006C5D105B0BDE8F08F00002DE9F04FCD
:1049A00087B040F23406C2F20006B6F800E05EFAC4
:1049B00081F77F2F05D8B6F802B05BFA91F73F2F49
:1049C00004D9002007B0BDE8F08F00BF0090C1F30C
:1049D000072005900028C8B2039000F027810398B3
:1049E000002800F023810098059F2038784302EBCF
:1049F00040000290039801F0030140F26C05401A58
:104A00000022C2F2000504910690CDF804B008E03F
:104A100001EA0A01295400BF05980132824200F0E0
:104A2000058102EB0B00C1B23F29F5D8029901279D
:104A300031F8128000F0070107FA01F9039989F0B3
:104A4000FF0A04294FF4786101EA001C4FF00000CE
:104A50000BD20499002940F08D80DDE704EA0A04B6
:104A60006C540699013088427CD0834608FA0BF4D6
:104A70000EEB00012404C8B24FEA01640AD5002CF1
:104A800012D440EA0C002E5C012B0AD146EA09043C
:104A900009E000BF002C07D440EA0C002E5C002B7C
:104AA000F4D006EA0A042C540BF1010000EB0E04CA
:104AB00008FA00F7E6B23F044FEA04640AD5002C76
:104AC00012D446EA0C06AC5D012B0AD144EA090473
:104AD00009E000BF002C07D446EA0C06AC5D002BB1
:104AE000F4D004EA0A04AC5501308C1C08FA00F733
:104AF000E6B23F044FEA04640AD5002C12D446EA19
:104B00000C06AC5D012B0AD144EA090409E000BFA0
:104B1000002C07D446EA0C06AC5D002BF4D004EA66
:104B20000A04AC550130CC1C08FA00F6E1B2360498
:104B30004FEA04640AD5002C3FF593AF41EA0C011B
:104B40006C5C012B7FF48AAF09E000BF002C3FF5BD
:104B500088AF41EA0C016C5C002B7FF47FAF44EA24
:104B600009047DE70BF10400DDF804B00499002985
:104B70003FF452AF00EB0E0108FA00F00404CEB28D
:104B80004FEA01640AD5002C12D446EA0C06AC5D4B
:104B9000012B0AD144EA090409E000BF002C07D424
:104BA00046EA0C06AC5D002BF4D004EA0A04AC55CE
:104BB000049C012C3FF430AF4C1CE6B247044FEA92
:104BC000046409D5002C11D446EA0C06AC5D012B17
:104BD00009D144EA090408E0002C07D446EA0C068F
:104BE000AC5D002BF5D004EA0A04AC55049C022C01
:104BF0003FF412AF8C1C8004E1B24FEA046009D587
:104C000000283FF509AF41EA0C00295C012B7FF435
:104C1000FFAE08E000283FF5FFAE41EA0C00295C3A
:104C2000002B7FF4F5AE41EA0901F3E6039840F268
:104C300034017044C2F2000108805DF81C0BBDE82D
:104C4000F08F0000F0B581B01C460378A3B1154683
:104C50000E46471CD8B231462A462346FFF79EFE31
:104C600017F8011C884204D117F8013B002BF1D141
:104C70000021084601B0F0BD0021084601B0F0BD9A
:104C8000B0B540F21805C2F200052978E9B140F24A
:104C90005850C2F2000000686A68801A062838BFBF
:104CA000B0BD0AA000F01AF805F10804204600F093
:104CB000A7FC00202870C5E90200C5E90400A8612E
:104CC00040F21450C2F200008462B0BD52656365C8
:104CD000697665642025640D0A0000000FB4054B59
:104CE00010B503A9044A029800F0EEF810BC5DF874
:104CF00014FB000071430008000000200FB4084BB3
:104D000010B504A902AA039800F0DEF8044602A92F
:104D1000002000F070FC204610BC5DF814FB000081
:104D2000F755000802E008C8121F08C1002AFAD18E
:104D300070477047002001E001C1121F002AFBD11B
:104D4000704700002DE9FF5F82B00021DDE90430EB
:104D5000020DDDF840B0034318D044F61050A2F223
:104D6000FF3242431514119801281FD0A5EB0B0008
:104D7000401C5FEA000A4FF000064E4FDFF8389102
:104D8000B046504615D5CAF1000413E0119801242D
:104D90004AA3012801D16FEA0B010298119AC0E9D8
:104DA0000031C0E9024206B0BDE8F09FCBF100003F
:104DB000DFE704460021404A491842EB0450CDE9A0
:104DC000001012E0E00707D032463B464046494615
:104DD000FBF708FC8046894632463B46104619469A
:104DE000FBF700FC06460F466410002CEAD1DDE913
:104DF0000401DDE90023BAF1000F06DAFBF7F2FB4C
:104E000042464B46FBF7EEFB05E0FBF75DFC4246F6
:104E10004B46FBF759FC04460E460022284BFBF795
:104E2000DBFC03D84FF0FF30014607E00022254BA2
:104E300020463146FBF725FAFBF7B5FC102409E0C4
:104E4000002C0ADB0A220023FBF7D8F9039B30323F
:104E50001A55641E50EA0102F2D1641C039AC4F18F
:104E600011031444119A012A03D0012208430DD1E1
:104E70000AE0084304D000204FF0110B119072E7B4
:104E8000A3EB0B056D1E0DE05B4504DD4FF000024A
:104E900005F1010504E003DA4FF00002A5F1010578
:104EA000002AECD002981199C0E90231C0E900450E
:104EB00079E70000000014400000F03F30000000DF
:104EC0000000F0430000E03F2DE9FF4F95B09B4606
:104ED0008946064600250FE2252877D1002427467B
:104EE000F84A0121059400E0044316F8013F203BF5
:104EF00001FA03F01042F7D130782A2811D06FF070
:104F00002F033078A0F13002092A16D8059A44F010
:104F1000020402EB820203EB42021044761C05906D
:104F2000EFE759F8042B0592002A03DA504244F4C3
:104F30000054059044F00204761C30782E2816D1D7
:104F400016F8010F44F004042A280DD06FF02F0248
:104F50003078A0F13003092B09D807EB870302EB67
:104F60004303C718761CF3E759F8047B761C3078A6
:104F70006C280FD006DC4C2817D068280DD06A2882
:104F800014D104E0742810D07A280FD10DE044F435
:104F900000140AE044F4801401E044F440147278F0
:104FA000824202D104F58014761C761C3078662883
:104FB0000BD013DC582877D009DC002875D04528A1
:104FC000F6D04628F4D047281AD19DE118E063288E
:104FD00035D0642879D0652812D195E1702873D036
:104FE00008DC6728F1D069286FD06E280DD06F28B3
:104FF00006D1B5E073282CD0752875D0782874D0E8
:105000005A46179990476D1C75E1C4F30250022867
:1050100009D003280DD0D9F8001004280DD00D6058
:1050200009F1040967E1D9F80010EA17C1E9005253
:10503000F6E7D9F800100D80F2E70D70F0E719F8E7
:10504000041B8DF8001000208DF80100EA460120B5
:1050500003E059F804AB4FF0FF3061074FF0000157
:1050600002D40DE008F101018846B9420FDA80450B
:10507000F8DB1AF808100029F4D108E008F1010162
:1050800088468142FADB1AF808100029F6D1059803
:105090005B46A0EB080721463846179A00F094FAC1
:1050A000284400EB080507E04DE029E10DE01AF87F
:1050B000010B5A4617999047B8F10108F7D25B46A1
:1050C00021463846179A13E142E00A220092C4F3BF
:1050D00002524FF0000A022A08D059F804CB032AE2
:1050E0004FEAEC710AD00DE029E02AE009F107014E
:1050F00021F00702F2E802C1914609E00FFA8CFCA8
:105100004FEAEC71042A03D14FFA8CFC4FEAEC71A0
:10511000002907DA0A460021DCF1000C61EB0201EC
:105120002D2202E0220504D52B228DF80420012235
:1051300003E0E20701D02022F7E7904659E00A2178
:1051400002E010220DE010214FF0000A00910BE068
:1051500010224FF0000A44F004040827009203E0F4
:1051600008224FF0000A0092C4F30252022A05D02E
:1051700059F804CB0021032A08D009E009F10701FE
:1051800021F00702F2E802C1914605E01FFA8CFC0B
:10519000042A01D10CF0FF0C4FF00008220728D59B
:1051A000702806D0009B83F0100353EA0A0305D051
:1051B0000EE040228DF80420012208E05CEA0102A2
:1051C00006D030228DF804208DF80500022290468A
:1051D000009B83F0080353EA0A030AD15CEA010248
:1051E00001D1620705D530228DF804204FF0010867
:1051F0007F1E582804D034A003900EA802900DE022
:1052000036A0F9E753466046009AFAF7F7FF84465E
:105210000398825C0298401E029002705CEA0100D2
:10522000F0D1029806A9081A00F1200A600702D5F9
:1052300024F4803400E00127574502DDA7EB0A0083
:1052400000E0002000EB0A01009005984144401A5C
:105250000590E00306D45B462146179A059800F0B6
:10526000B3F90544002706E001A85A46C05D179926
:1052700090476D1C7F1C4745F6DBE0030CD55B4671
:105280002146179A059800F09FF9054404E0302064
:105290005A46179990476D1C0099481E00900029A6
:1052A000F5DC08E0029802995A460078491C029100
:1052B000179990476D1CBAF10001AAF1010AF1DCBF
:1052C00065E10000092801003031323334353637CA
:1052D0003839616263646566000000003031323342
:1052E00034353637383941424344454600000000E2
:1052F00000F058F90544761C307800287FF4ECADB6
:1053000019B02846BDE8F08F620700D4062709F1DE
:10531000070222F0070CFCE80223E14603F00048F4
:105320005FEA080C02D00FF2702C0DE05FEA045C1B
:1053300002D50FF2682C07E05FEAC47C02D00FF2BE
:10534000602C01E0AFF2700C4FF0FF3823F0004307
:10535000CDF850C065280CD006DC452809D0462879
:105360001DD047283DD13DE0662818D067287ED162
:1053700038E00021112F01DB112000E0781CCDE97D
:10538000000106A90EA8FFF7DDFCDDE90F010E9A6A
:1053900003910021009207F1010A04914DE04FF0C2
:1053A00000400097CDE9011006A90EA8FFF7CAFC3E
:1053B000DDE90F0203920E9B11990022DDF80CA08B
:1053C0000093049211B9791C00EB010AB7EB0A00B3
:1053D00004D4C0F1FF3007F1010A0490AAEB0700E2
:1053E000019044E0012F00DA01270021112F01DD97
:1053F000112000E03846CDE9000106A90EA8FFF70C
:10540000A1FCDDE90F010E9A0391002104910092A5
:10541000BA4621070CD40399514500DA8A46BAF1FD
:10542000010F05DD009AAAF10101515C302908D075
:10543000B84202DA10F1040F06DA0121CDE90110B9
:1054400015E0AAF10101E9E7002805DC049901440F
:105450000491AAEB000102E0411C514500DD8A469F
:105460000499401A401C01904FF000400290200720
:1054700004D40198504501DBCDF8048000208DF85C
:105480004F0002980DF14F07B0F1004F25D02B20AF
:105490000E9002984FF0020800280CDA4042029069
:1054A0002D200E9007E00A210298FAF7C0FF303154
:1054B000029007F8011DB8F10001A8F10108F2DC23
:1054C00002980028EFD1791E0E980870307800F00D
:1054D000200040F0450007F8020D12A8C01B00F1A3
:1054E00007081498007800B1012000EB0A01019828
:1054F00001EBE07105984144401A401E0590E0031D
:1055000006D45B462146179A059800F05DF80544DD
:105510001498007818B15A46179990476D1CE0030B
:1055200024D55B462146179A059800F04DF80544AE
:105530001CE00498002807DBDDE90301884203DD55
:105540000098405C179901E0179930205A4690471F
:10555000049805F10105401C04900198401E01903B
:1055600004D12E205A46179990476D1CBAF10001BC
:10557000AAF1010ADDDC05E017F8010B5A4617997C
:1055800090476D1CB8F10001A8F10108F4DC5B46FE
:105590002146179A0598ABE62D0000002B0000006D
:1055A000200000002DE9F041044600251E46174664
:1055B000880404D405E039462020B0476D1C641EE1
:1055C000F9D52846BDE8F0812DE9F04104460025D3
:1055D0001E469046C80301D5302700E020278804E6
:1055E00004D505E041463846B0476D1C641EF9D528
:1055F0002846BDE8F0810A68531C0B6010707047A4
:1056000010B5044601E0FEF7B3FE14F8010B04499F
:105610000028F8D1BDE810400A20FEF7A9BE00001E
:105620000000002000000000000000000102030450
:105630000607080900000000010203040000000042
:10564000000000000000000000000000000000005A
:1056500000100010001000100010001000000010DA
:1056600000000000002800280028000000000000C2
:10567000000000000000000000240024007C002442
:105680000048007C0048004800000000003800543A
:10569000005000380014005400540038001000007E
:1056A0000020005400580030002800540014000866
:1056B00000000000001000280028001000340048FE
:1056C000004800340000000000100010001000002E
:1056D00000000000000000000000000000080010B2
:1056E00000200020002000200020002000100008E2
:1056F000002000100008000800080008000800084A
:1057000000100020001000380010002800000000E9
:105710000000000000000000000000000010001069
:10572000007C0010001000000000000000000000DD
:105730000000000000000000000000100010001039
:105740000000000000000000000000380000000021
:105750000000000000000000000000000000000049
:1057600000000010000000000008000800100010F9
:10577000001000100020002000000000003800444D
:10578000004400540044004400440038000000007D
:105790000010003000500010001000100010001029
:1057A000000000000038004400440004000800101D
:1057B0000020007C000000000038004400040018B5
:1057C0000004000400440038000000000008001835
:1057D000002800280048007C0008000800000000A5
:1057E000007C0040004000780004000400440038C1
:1057F00000000000003800440040007800440044ED
:105800000044003800000000007C00040008001084
:10581000001000200020002000000000003800449C
:1058200000440038004400440044003800000000F8
:105830000038004400440044003C000400440038A8
:105840000000000000000000001000000000000048
:105850000000001000000000000000000000001028
:105860000000000000000010001000100000000008
:10587000000C003000400030000C00000000000070
:10588000000000000000007C0000007C0000000020
:105890000000000000000000006000180004001874
:1058A0000060000000000000003800440004000810
:1058B000001000100000001000000000003800443C
:1058C000004C0054005C0040004000380000000024
:1058D00000100028002800280028007C0044004414
:1058E00000000000007800440044007800440044B8
:1058F00000440078000000000038004400400040F0
:1059000000400040004400380000000000700048E3
:1059100000440044004400440048007000000000BF
:10592000007C00400040007C004000400040007CC3
:1059300000000000007C0040004000780040004073
:1059400000400040000000000038004400400040DB
:10595000005C0044004400380000000000440044A3
:105960000044007C00440044004400440000000067
:105970000038001000100010001000100010003857
:1059800000000000000400040004000400040004FF
:10599000004400380000000000440048005000604F
:1059A0000050004800480044000000000040004053
:1059B00000400040004000400040007C000000002B
:1059C0000044006C006C0054004400440044004457
:1059D0000000000000440064006400540054004CC7
:1059E000004C004400000000003800440044004423
:1059F00000440044004400380000000000780044E7
:105A000000440044007800400040004000000000D6
:105A1000003800440044004400440044005400386E
:105A2000000400000078004400440044007800486E
:105A300000480044000000000038004400400030EE
:105A4000000800040044003800000000007C001042
:105A500000100010001000100010001000000000E6
:105A60000044004400440044004400440044003822
:105A700000000000004400440044002800280028E2
:105A800000100010000000000044004400540054C6
:105A90000054006C0028002800000000004400288A
:105AA000002800100010002800280044000000001A
:105AB00000440044002800280010001000100010CE
:105AC00000000000007C000400080010001000200E
:105AD0000040007C000000000018001000100010C2
